{
  "_format": "hh-sol-artifact-1",
  "contractName": "NFT",
  "sourceName": "contracts/Nft.sol",
  "addresses": {
    "80001": "0x93a0b777A83E6A279BD5FB4d529e59b2df341810",
    "4": "0x49D5F82D642551008608121eDd8E18ed3ff906f3"
  },
  "abi": [
    {
      "inputs": [
        {
          "internalType": "bytes32",
          "name": "root",
          "type": "bytes32"
        },
        {
          "internalType": "bool",
          "name": "_isTesting",
          "type": "bool"
        }
      ],
      "stateMutability": "nonpayable",
      "type": "constructor"
    },
    {
      "anonymous": false,
      "inputs": [
        {
          "indexed": true,
          "internalType": "address",
          "name": "owner",
          "type": "address"
        },
        {
          "indexed": true,
          "internalType": "address",
          "name": "approved",
          "type": "address"
        },
        {
          "indexed": true,
          "internalType": "uint256",
          "name": "tokenId",
          "type": "uint256"
        }
      ],
      "name": "Approval",
      "type": "event"
    },
    {
      "anonymous": false,
      "inputs": [
        {
          "indexed": true,
          "internalType": "address",
          "name": "owner",
          "type": "address"
        },
        {
          "indexed": true,
          "internalType": "address",
          "name": "operator",
          "type": "address"
        },
        {
          "indexed": false,
          "internalType": "bool",
          "name": "approved",
          "type": "bool"
        }
      ],
      "name": "ApprovalForAll",
      "type": "event"
    },
    {
      "anonymous": false,
      "inputs": [
        {
          "indexed": true,
          "internalType": "address",
          "name": "previousOwner",
          "type": "address"
        },
        {
          "indexed": true,
          "internalType": "address",
          "name": "newOwner",
          "type": "address"
        }
      ],
      "name": "OwnershipTransferred",
      "type": "event"
    },
    {
      "anonymous": false,
      "inputs": [
        {
          "indexed": true,
          "internalType": "address",
          "name": "from",
          "type": "address"
        },
        {
          "indexed": true,
          "internalType": "address",
          "name": "to",
          "type": "address"
        },
        {
          "indexed": true,
          "internalType": "uint256",
          "name": "tokenId",
          "type": "uint256"
        }
      ],
      "name": "Transfer",
      "type": "event"
    },
    {
      "inputs": [],
      "name": "TOTALCOUNT",
      "outputs": [
        {
          "internalType": "uint256",
          "name": "",
          "type": "uint256"
        }
      ],
      "stateMutability": "view",
      "type": "function"
    },
    {
      "inputs": [
        {
          "internalType": "address",
          "name": "to",
          "type": "address"
        },
        {
          "internalType": "uint256",
          "name": "tokenId",
          "type": "uint256"
        }
      ],
      "name": "approve",
      "outputs": [],
      "stateMutability": "nonpayable",
      "type": "function"
    },
    {
      "inputs": [
        {
          "internalType": "address",
          "name": "owner",
          "type": "address"
        }
      ],
      "name": "balanceOf",
      "outputs": [
        {
          "internalType": "uint256",
          "name": "",
          "type": "uint256"
        }
      ],
      "stateMutability": "view",
      "type": "function"
    },
    {
      "inputs": [],
      "name": "baseURI",
      "outputs": [
        {
          "internalType": "string",
          "name": "",
          "type": "string"
        }
      ],
      "stateMutability": "view",
      "type": "function"
    },
    {
      "inputs": [
        {
          "internalType": "uint256",
          "name": "tokenId",
          "type": "uint256"
        }
      ],
      "name": "burn",
      "outputs": [],
      "stateMutability": "nonpayable",
      "type": "function"
    },
    {
      "inputs": [
        {
          "internalType": "address",
          "name": "to",
          "type": "address"
        }
      ],
      "name": "computeLeaf",
      "outputs": [
        {
          "internalType": "bytes32",
          "name": "",
          "type": "bytes32"
        }
      ],
      "stateMutability": "pure",
      "type": "function"
    },
    {
      "inputs": [
        {
          "internalType": "uint256",
          "name": "tokenId",
          "type": "uint256"
        }
      ],
      "name": "getApproved",
      "outputs": [
        {
          "internalType": "address",
          "name": "",
          "type": "address"
        }
      ],
      "stateMutability": "view",
      "type": "function"
    },
    {
      "inputs": [
        {
          "internalType": "address",
          "name": "owner",
          "type": "address"
        },
        {
          "internalType": "address",
          "name": "operator",
          "type": "address"
        }
      ],
      "name": "isApprovedForAll",
      "outputs": [
        {
          "internalType": "bool",
          "name": "",
          "type": "bool"
        }
      ],
      "stateMutability": "view",
      "type": "function"
    },
    {
      "inputs": [],
      "name": "isTesting",
      "outputs": [
        {
          "internalType": "bool",
          "name": "",
          "type": "bool"
        }
      ],
      "stateMutability": "view",
      "type": "function"
    },
    {
      "inputs": [
        {
          "internalType": "bytes32[]",
          "name": "_proof",
          "type": "bytes32[]"
        },
        {
          "internalType": "address",
          "name": "to",
          "type": "address"
        }
      ],
      "name": "isValidProof",
      "outputs": [
        {
          "internalType": "bool",
          "name": "",
          "type": "bool"
        }
      ],
      "stateMutability": "view",
      "type": "function"
    },
    {
      "inputs": [
        {
          "internalType": "address",
          "name": "to",
          "type": "address"
        }
      ],
      "name": "isWhitelisted",
      "outputs": [
        {
          "internalType": "bool",
          "name": "",
          "type": "bool"
        }
      ],
      "stateMutability": "view",
      "type": "function"
    },
    {
      "inputs": [],
      "name": "merkleroot",
      "outputs": [
        {
          "internalType": "bytes32",
          "name": "",
          "type": "bytes32"
        }
      ],
      "stateMutability": "view",
      "type": "function"
    },
    {
      "inputs": [
        {
          "internalType": "address",
          "name": "to",
          "type": "address"
        },
        {
          "internalType": "bytes32[]",
          "name": "_proof",
          "type": "bytes32[]"
        }
      ],
      "name": "mint",
      "outputs": [],
      "stateMutability": "nonpayable",
      "type": "function"
    },
    {
      "inputs": [],
      "name": "name",
      "outputs": [
        {
          "internalType": "string",
          "name": "",
          "type": "string"
        }
      ],
      "stateMutability": "view",
      "type": "function"
    },
    {
      "inputs": [],
      "name": "owner",
      "outputs": [
        {
          "internalType": "address",
          "name": "",
          "type": "address"
        }
      ],
      "stateMutability": "view",
      "type": "function"
    },
    {
      "inputs": [
        {
          "internalType": "uint256",
          "name": "tokenId",
          "type": "uint256"
        }
      ],
      "name": "ownerOf",
      "outputs": [
        {
          "internalType": "address",
          "name": "",
          "type": "address"
        }
      ],
      "stateMutability": "view",
      "type": "function"
    },
    {
      "inputs": [],
      "name": "renounceOwnership",
      "outputs": [],
      "stateMutability": "nonpayable",
      "type": "function"
    },
    {
      "inputs": [
        {
          "internalType": "address",
          "name": "from",
          "type": "address"
        },
        {
          "internalType": "address",
          "name": "to",
          "type": "address"
        },
        {
          "internalType": "uint256",
          "name": "tokenId",
          "type": "uint256"
        }
      ],
      "name": "safeTransferFrom",
      "outputs": [],
      "stateMutability": "nonpayable",
      "type": "function"
    },
    {
      "inputs": [
        {
          "internalType": "address",
          "name": "from",
          "type": "address"
        },
        {
          "internalType": "address",
          "name": "to",
          "type": "address"
        },
        {
          "internalType": "uint256",
          "name": "tokenId",
          "type": "uint256"
        },
        {
          "internalType": "bytes",
          "name": "_data",
          "type": "bytes"
        }
      ],
      "name": "safeTransferFrom",
      "outputs": [],
      "stateMutability": "nonpayable",
      "type": "function"
    },
    {
      "inputs": [
        {
          "internalType": "address",
          "name": "operator",
          "type": "address"
        },
        {
          "internalType": "bool",
          "name": "approved",
          "type": "bool"
        }
      ],
      "name": "setApprovalForAll",
      "outputs": [],
      "stateMutability": "nonpayable",
      "type": "function"
    },
    {
      "inputs": [
        {
          "internalType": "string",
          "name": "_newURI",
          "type": "string"
        }
      ],
      "name": "setBaseURI",
      "outputs": [],
      "stateMutability": "nonpayable",
      "type": "function"
    },
    {
      "inputs": [
        {
          "internalType": "bytes4",
          "name": "interfaceId",
          "type": "bytes4"
        }
      ],
      "name": "supportsInterface",
      "outputs": [
        {
          "internalType": "bool",
          "name": "",
          "type": "bool"
        }
      ],
      "stateMutability": "view",
      "type": "function"
    },
    {
      "inputs": [],
      "name": "symbol",
      "outputs": [
        {
          "internalType": "string",
          "name": "",
          "type": "string"
        }
      ],
      "stateMutability": "view",
      "type": "function"
    },
    {
      "inputs": [],
      "name": "tokenIdCounter",
      "outputs": [
        {
          "internalType": "uint256",
          "name": "_value",
          "type": "uint256"
        }
      ],
      "stateMutability": "view",
      "type": "function"
    },
    {
      "inputs": [
        {
          "internalType": "address",
          "name": "",
          "type": "address"
        }
      ],
      "name": "tokenPerWallet",
      "outputs": [
        {
          "internalType": "bool",
          "name": "didMint",
          "type": "bool"
        },
        {
          "internalType": "uint256",
          "name": "tokenId",
          "type": "uint256"
        }
      ],
      "stateMutability": "view",
      "type": "function"
    },
    {
      "inputs": [
        {
          "internalType": "uint256",
          "name": "tokenId",
          "type": "uint256"
        }
      ],
      "name": "tokenURI",
      "outputs": [
        {
          "internalType": "string",
          "name": "",
          "type": "string"
        }
      ],
      "stateMutability": "view",
      "type": "function"
    },
    {
      "inputs": [
        {
          "internalType": "address",
          "name": "from",
          "type": "address"
        },
        {
          "internalType": "address",
          "name": "to",
          "type": "address"
        },
        {
          "internalType": "uint256",
          "name": "tokenId",
          "type": "uint256"
        }
      ],
      "name": "transferFrom",
      "outputs": [],
      "stateMutability": "nonpayable",
      "type": "function"
    },
    {
      "inputs": [
        {
          "internalType": "address",
          "name": "newOwner",
          "type": "address"
        }
      ],
      "name": "transferOwnership",
      "outputs": [],
      "stateMutability": "nonpayable",
      "type": "function"
    }
  ],
  "bytecode": "0x60a060405266b1a2bc2ec50000600855620186a06009556005600a55600b805460ff191690553480156200003257600080fd5b5060405162002e1938038062002e198339810160408190526200005591620002ab565b6040805180820182526009815268474d467269656e647360b81b60208083019182528351808501909452600384526223a6a360e91b908401526001600160a01b0384166080528151919291620000ae91600091620001d2565b508051620000c4906001906020840190620001d2565b50506006805460ff1916905550620000e5620000df6200011f565b6200013b565b600780546001600160a01b0319166001600160a01b03851617905581516200011590600e906020850190620001d2565b50505050620003ed565b6000620001366200019560201b6200138d1760201c565b905090565b600680546001600160a01b03838116610100818102610100600160a81b031985161790945560405193909204169182907f8be0079c531659141344cd1fd0a4f28419497f9722a3daafe3b4186f6b6457e090600090a35050565b6080516000906001600160a01b0316331415620001b9575060131936013560601c90565b62000136620001ce60201b620013fd1760201c565b3390565b828054620001e090620003b0565b90600052602060002090601f0160209004810192826200020457600085556200024f565b82601f106200021f57805160ff19168380011785556200024f565b828001600101855582156200024f579182015b828111156200024f57825182559160200191906001019062000232565b506200025d92915062000261565b5090565b5b808211156200025d576000815560010162000262565b80516001600160a01b03811681146200029057600080fd5b919050565b634e487b7160e01b600052604160045260246000fd5b600080600060608486031215620002c157600080fd5b620002cc8462000278565b602085810151919450906001600160401b0380821115620002ec57600080fd5b818701915087601f8301126200030157600080fd5b81518181111562000316576200031662000295565b604051601f8201601f19908116603f0116810190838211818310171562000341576200034162000295565b816040528281528a868487010111156200035a57600080fd5b600093505b828410156200037e57848401860151818501870152928501926200035f565b82841115620003905760008684830101525b809750505050505050620003a76040850162000278565b90509250925092565b600181811c90821680620003c557607f821691505b60208210811415620003e757634e487b7160e01b600052602260045260246000fd5b50919050565b608051612a0962000410600039600081816102ec01526113910152612a096000f3fe608060405234801561001057600080fd5b50600436106101c45760003560e01c806370a08231116100f9578063a22cb46511610097578063d5abeb0111610071578063d5abeb01146103ea578063e985e9c5146103f3578063f2fde38b1461043c578063febfec501461044f57600080fd5b8063a22cb465146103b1578063b88d4fde146103c4578063c87b56dd146103d757600080fd5b80638da5cb5b116100d35780638da5cb5b1461036a57806395d89b411461038d578063a035b1fe14610395578063a0712d681461039e57600080fd5b806370a0823114610347578063715018a61461035a5780638456cb591461036257600080fd5b80633f4ba83a11610166578063564566a811610140578063564566a8146102bd578063572b6c05146102dc5780635c975abb146103295780636352211e1461033457600080fd5b80633f4ba83a1461028f57806342842e0e1461029757806342966c68146102aa57600080fd5b8063081812fc116101a2578063081812fc1461021b578063095ea7b31461025357806318160ddd1461026657806323b872dd1461027c57600080fd5b806301ffc9a7146101c957806302fe5305146101f157806306fdde0314610206575b600080fd5b6101dc6101d736600461244a565b610462565b60405190151581526020015b60405180910390f35b6102046101ff36600461252a565b610547565b005b61020e610623565b6040516101e891906125e9565b61022e6102293660046125fc565b6106b5565b60405173ffffffffffffffffffffffffffffffffffffffff90911681526020016101e8565b61020461026136600461263e565b61078f565b61026e61093b565b6040519081526020016101e8565b61020461028a366004612668565b610958565b610204610a00565b6102046102a5366004612668565b610aca565b6102046102b83660046125fc565b610ae5565b600b546102ca9060ff1681565b60405160ff90911681526020016101e8565b6101dc6102ea3660046126a4565b7f000000000000000000000000000000000000000000000000000000000000000073ffffffffffffffffffffffffffffffffffffffff90811691161490565b60065460ff166101dc565b61022e6103423660046125fc565b610b96565b61026e6103553660046126a4565b610c48565b610204610d16565b610204610de0565b600654610100900473ffffffffffffffffffffffffffffffffffffffff1661022e565b61020e610ea8565b61026e60085481565b6102046103ac3660046125fc565b610eb7565b6102046103bf3660046126bf565b610ee3565b6102046103d23660046126fb565b610ef5565b61020e6103e53660046125fc565b610fa4565b61026e60095481565b6101dc610401366004612777565b73ffffffffffffffffffffffffffffffffffffffff918216600090815260056020908152604080832093909416825291909152205460ff1690565b61020461044a3660046126a4565b6110b4565b61020461045d3660046127aa565b611220565b60007fffffffff0000000000000000000000000000000000000000000000000000000082167f80ac58cd0000000000000000000000000000000000000000000000000000000014806104f557507fffffffff0000000000000000000000000000000000000000000000000000000082167f5b5e139f00000000000000000000000000000000000000000000000000000000145b8061054157507f01ffc9a7000000000000000000000000000000000000000000000000000000007fffffffff000000000000000000000000000000000000000000000000000000008316145b92915050565b61054f611401565b73ffffffffffffffffffffffffffffffffffffffff1661058a60065473ffffffffffffffffffffffffffffffffffffffff6101009091041690565b73ffffffffffffffffffffffffffffffffffffffff161461060c576040517f08c379a000000000000000000000000000000000000000000000000000000000815260206004820181905260248201527f4f776e61626c653a2063616c6c6572206973206e6f7420746865206f776e657260448201526064015b60405180910390fd5b805161061f90600e906020840190612383565b5050565b606060008054610632906127cd565b80601f016020809104026020016040519081016040528092919081815260200182805461065e906127cd565b80156106ab5780601f10610680576101008083540402835291602001916106ab565b820191906000526020600020905b81548152906001019060200180831161068e57829003601f168201915b5050505050905090565b60008181526002602052604081205473ffffffffffffffffffffffffffffffffffffffff16610766576040517f08c379a000000000000000000000000000000000000000000000000000000000815260206004820152602c60248201527f4552433732313a20617070726f76656420717565727920666f72206e6f6e657860448201527f697374656e7420746f6b656e00000000000000000000000000000000000000006064820152608401610603565b5060009081526004602052604090205473ffffffffffffffffffffffffffffffffffffffff1690565b600061079a82610b96565b90508073ffffffffffffffffffffffffffffffffffffffff168373ffffffffffffffffffffffffffffffffffffffff161415610858576040517f08c379a000000000000000000000000000000000000000000000000000000000815260206004820152602160248201527f4552433732313a20617070726f76616c20746f2063757272656e74206f776e6560448201527f72000000000000000000000000000000000000000000000000000000000000006064820152608401610603565b8073ffffffffffffffffffffffffffffffffffffffff16610877611401565b73ffffffffffffffffffffffffffffffffffffffff1614806108a057506108a081610401611401565b61092c576040517f08c379a000000000000000000000000000000000000000000000000000000000815260206004820152603860248201527f4552433732313a20617070726f76652063616c6c6572206973206e6f74206f7760448201527f6e6572206e6f7220617070726f76656420666f7220616c6c00000000000000006064820152608401610603565b610936838361140b565b505050565b6000610946600d5490565b600c546109539190612850565b905090565b610969610963611401565b826114ab565b6109f5576040517f08c379a000000000000000000000000000000000000000000000000000000000815260206004820152603160248201527f4552433732313a207472616e736665722063616c6c6572206973206e6f74206f60448201527f776e6572206e6f7220617070726f7665640000000000000000000000000000006064820152608401610603565b61093683838361161b565b610a08611401565b73ffffffffffffffffffffffffffffffffffffffff16610a4360065473ffffffffffffffffffffffffffffffffffffffff6101009091041690565b73ffffffffffffffffffffffffffffffffffffffff1614610ac0576040517f08c379a000000000000000000000000000000000000000000000000000000000815260206004820181905260248201527f4f776e61626c653a2063616c6c6572206973206e6f7420746865206f776e65726044820152606401610603565b610ac861188d565b565b61093683838360405180602001604052806000815250610ef5565b610af0610963611401565b610b7c576040517f08c379a000000000000000000000000000000000000000000000000000000000815260206004820152603060248201527f4552433732314275726e61626c653a2063616c6c6572206973206e6f74206f7760448201527f6e6572206e6f7220617070726f766564000000000000000000000000000000006064820152608401610603565b610b8a600d80546001019055565b610b9381611974565b50565b60008181526002602052604081205473ffffffffffffffffffffffffffffffffffffffff1680610541576040517f08c379a000000000000000000000000000000000000000000000000000000000815260206004820152602960248201527f4552433732313a206f776e657220717565727920666f72206e6f6e657869737460448201527f656e7420746f6b656e00000000000000000000000000000000000000000000006064820152608401610603565b600073ffffffffffffffffffffffffffffffffffffffff8216610ced576040517f08c379a000000000000000000000000000000000000000000000000000000000815260206004820152602a60248201527f4552433732313a2062616c616e636520717565727920666f7220746865207a6560448201527f726f2061646472657373000000000000000000000000000000000000000000006064820152608401610603565b5073ffffffffffffffffffffffffffffffffffffffff1660009081526003602052604090205490565b610d1e611401565b73ffffffffffffffffffffffffffffffffffffffff16610d5960065473ffffffffffffffffffffffffffffffffffffffff6101009091041690565b73ffffffffffffffffffffffffffffffffffffffff1614610dd6576040517f08c379a000000000000000000000000000000000000000000000000000000000815260206004820181905260248201527f4f776e61626c653a2063616c6c6572206973206e6f7420746865206f776e65726044820152606401610603565b610ac86000611a4d565b610de8611401565b73ffffffffffffffffffffffffffffffffffffffff16610e2360065473ffffffffffffffffffffffffffffffffffffffff6101009091041690565b73ffffffffffffffffffffffffffffffffffffffff1614610ea0576040517f08c379a000000000000000000000000000000000000000000000000000000000815260206004820181905260248201527f4f776e61626c653a2063616c6c6572206973206e6f7420746865206f776e65726044820152606401610603565b610ac8611acb565b606060018054610632906127cd565b6000610ec2600c5490565b9050610ed2600c80546001019055565b61061f610edd611401565b82611b8c565b61061f610eee611401565b8383611ba6565b610f06610f00611401565b836114ab565b610f92576040517f08c379a000000000000000000000000000000000000000000000000000000000815260206004820152603160248201527f4552433732313a207472616e736665722063616c6c6572206973206e6f74206f60448201527f776e6572206e6f7220617070726f7665640000000000000000000000000000006064820152608401610603565b610f9e84848484611cd4565b50505050565b60008181526002602052604090205460609073ffffffffffffffffffffffffffffffffffffffff16611058576040517f08c379a000000000000000000000000000000000000000000000000000000000815260206004820152602f60248201527f4552433732314d657461646174613a2055524920717565727920666f72206e6f60448201527f6e6578697374656e7420746f6b656e00000000000000000000000000000000006064820152608401610603565b6000611062611d77565b9050600081511161108257604051806020016040528060008152506110ad565b8061108c84611d86565b60405160200161109d929190612867565b6040516020818303038152906040525b9392505050565b6110bc611401565b73ffffffffffffffffffffffffffffffffffffffff166110f760065473ffffffffffffffffffffffffffffffffffffffff6101009091041690565b73ffffffffffffffffffffffffffffffffffffffff1614611174576040517f08c379a000000000000000000000000000000000000000000000000000000000815260206004820181905260248201527f4f776e61626c653a2063616c6c6572206973206e6f7420746865206f776e65726044820152606401610603565b73ffffffffffffffffffffffffffffffffffffffff8116611217576040517f08c379a000000000000000000000000000000000000000000000000000000000815260206004820152602660248201527f4f776e61626c653a206e6577206f776e657220697320746865207a65726f206160448201527f64647265737300000000000000000000000000000000000000000000000000006064820152608401610603565b610b9381611a4d565b611228611401565b73ffffffffffffffffffffffffffffffffffffffff1661126360065473ffffffffffffffffffffffffffffffffffffffff6101009091041690565b73ffffffffffffffffffffffffffffffffffffffff16146112e0576040517f08c379a000000000000000000000000000000000000000000000000000000000815260206004820181905260248201527f4f776e61626c653a2063616c6c6572206973206e6f7420746865206f776e65726044820152606401610603565b60ff811615806112f357508060ff166001145b611359576040517f08c379a000000000000000000000000000000000000000000000000000000000815260206004820152600e60248201527f4d7573742062652030206f7220310000000000000000000000000000000000006044820152606401610603565b600b80547fffffffffffffffffffffffffffffffffffffffffffffffffffffffffffffff001660ff92909216919091179055565b60007f000000000000000000000000000000000000000000000000000000000000000073ffffffffffffffffffffffffffffffffffffffff163314156113f857507fffffffffffffffffffffffffffffffffffffffffffffffffffffffffffffffec36013560601c90565b503390565b3390565b600061095361138d565b600081815260046020526040902080547fffffffffffffffffffffffff00000000000000000000000000000000000000001673ffffffffffffffffffffffffffffffffffffffff8416908117909155819061146582610b96565b73ffffffffffffffffffffffffffffffffffffffff167f8c5be1e5ebec7d5bd14f71427d1e84f3dd0314c0f7b2291e5b200ac8c7c3b92560405160405180910390a45050565b60008181526002602052604081205473ffffffffffffffffffffffffffffffffffffffff1661155c576040517f08c379a000000000000000000000000000000000000000000000000000000000815260206004820152602c60248201527f4552433732313a206f70657261746f7220717565727920666f72206e6f6e657860448201527f697374656e7420746f6b656e00000000000000000000000000000000000000006064820152608401610603565b600061156783610b96565b90508073ffffffffffffffffffffffffffffffffffffffff168473ffffffffffffffffffffffffffffffffffffffff1614806115d657508373ffffffffffffffffffffffffffffffffffffffff166115be846106b5565b73ffffffffffffffffffffffffffffffffffffffff16145b80611613575073ffffffffffffffffffffffffffffffffffffffff80821660009081526005602090815260408083209388168352929052205460ff165b949350505050565b8273ffffffffffffffffffffffffffffffffffffffff1661163b82610b96565b73ffffffffffffffffffffffffffffffffffffffff16146116de576040517f08c379a000000000000000000000000000000000000000000000000000000000815260206004820152602560248201527f4552433732313a207472616e736665722066726f6d20696e636f72726563742060448201527f6f776e65720000000000000000000000000000000000000000000000000000006064820152608401610603565b73ffffffffffffffffffffffffffffffffffffffff8216611780576040517f08c379a0000000000000000000000000000000000000000000000000000000008152602060048201526024808201527f4552433732313a207472616e7366657220746f20746865207a65726f2061646460448201527f72657373000000000000000000000000000000000000000000000000000000006064820152608401610603565b61178b838383611eb8565b61179660008261140b565b73ffffffffffffffffffffffffffffffffffffffff831660009081526003602052604081208054600192906117cc908490612850565b909155505073ffffffffffffffffffffffffffffffffffffffff82166000908152600360205260408120805460019290611807908490612896565b909155505060008181526002602052604080822080547fffffffffffffffffffffffff00000000000000000000000000000000000000001673ffffffffffffffffffffffffffffffffffffffff86811691821790925591518493918716917fddf252ad1be2c89b69c2b068fc378daa952ba7f163c4a11628f55a4df523b3ef91a4505050565b60065460ff166118f9576040517f08c379a000000000000000000000000000000000000000000000000000000000815260206004820152601460248201527f5061757361626c653a206e6f74207061757365640000000000000000000000006044820152606401610603565b600680547fffffffffffffffffffffffffffffffffffffffffffffffffffffffffffffff001690557f5db9ee0a495bf2e6ff9c91a7834c1ba4fdd244a5e8aa4e537bd38aeae4b073aa61194a611401565b60405173ffffffffffffffffffffffffffffffffffffffff909116815260200160405180910390a1565b600061197f82610b96565b905061198d81600084611eb8565b61199860008361140b565b73ffffffffffffffffffffffffffffffffffffffff811660009081526003602052604081208054600192906119ce908490612850565b909155505060008281526002602052604080822080547fffffffffffffffffffffffff00000000000000000000000000000000000000001690555183919073ffffffffffffffffffffffffffffffffffffffff8416907fddf252ad1be2c89b69c2b068fc378daa952ba7f163c4a11628f55a4df523b3ef908390a45050565b6006805473ffffffffffffffffffffffffffffffffffffffff8381166101008181027fffffffffffffffffffffff0000000000000000000000000000000000000000ff85161790945560405193909204169182907f8be0079c531659141344cd1fd0a4f28419497f9722a3daafe3b4186f6b6457e090600090a35050565b60065460ff1615611b38576040517f08c379a000000000000000000000000000000000000000000000000000000000815260206004820152601060248201527f5061757361626c653a20706175736564000000000000000000000000000000006044820152606401610603565b600680547fffffffffffffffffffffffffffffffffffffffffffffffffffffffffffffff001660011790557f62e78cea01bee320cd4e420270b5ea74000d11b0c9f74754ebdbfc544b05a25861194a611401565b61061f828260405180602001604052806000815250611f25565b8173ffffffffffffffffffffffffffffffffffffffff168373ffffffffffffffffffffffffffffffffffffffff161415611c3c576040517f08c379a000000000000000000000000000000000000000000000000000000000815260206004820152601960248201527f4552433732313a20617070726f766520746f2063616c6c6572000000000000006044820152606401610603565b73ffffffffffffffffffffffffffffffffffffffff83811660008181526005602090815260408083209487168084529482529182902080547fffffffffffffffffffffffffffffffffffffffffffffffffffffffffffffff001686151590811790915591519182527f17307eab39ab6107e8899845ad3d59bd9653f200f220920489ca2b5937696c31910160405180910390a3505050565b611cdf84848461161b565b611ceb84848484611fc8565b610f9e576040517f08c379a000000000000000000000000000000000000000000000000000000000815260206004820152603260248201527f4552433732313a207472616e7366657220746f206e6f6e20455243373231526560448201527f63656976657220696d706c656d656e74657200000000000000000000000000006064820152608401610603565b6060600e8054610632906127cd565b606081611dc657505060408051808201909152600181527f3000000000000000000000000000000000000000000000000000000000000000602082015290565b8160005b8115611df05780611dda816128ae565b9150611de99050600a83612916565b9150611dca565b60008167ffffffffffffffff811115611e0b57611e0b612467565b6040519080825280601f01601f191660200182016040528015611e35576020820181803683370190505b5090505b841561161357611e4a600183612850565b9150611e57600a8661292a565b611e62906030612896565b60f81b818381518110611e7757611e7761293e565b60200101907effffffffffffffffffffffffffffffffffffffffffffffffffffffffffffff1916908160001a905350611eb1600a86612916565b9450611e39565b60065460ff1615610936576040517f08c379a000000000000000000000000000000000000000000000000000000000815260206004820152601060248201527f5061757361626c653a20706175736564000000000000000000000000000000006044820152606401610603565b611f2f83836121b5565b611f3c6000848484611fc8565b610936576040517f08c379a000000000000000000000000000000000000000000000000000000000815260206004820152603260248201527f4552433732313a207472616e7366657220746f206e6f6e20455243373231526560448201527f63656976657220696d706c656d656e74657200000000000000000000000000006064820152608401610603565b600073ffffffffffffffffffffffffffffffffffffffff84163b156121aa578373ffffffffffffffffffffffffffffffffffffffff1663150b7a0261200b611401565b8786866040518563ffffffff1660e01b815260040161202d949392919061296d565b602060405180830381600087803b15801561204757600080fd5b505af1925050508015612095575060408051601f3d9081017fffffffffffffffffffffffffffffffffffffffffffffffffffffffffffffffe0168201909252612092918101906129b6565b60015b61215f573d8080156120c3576040519150601f19603f3d011682016040523d82523d6000602084013e6120c8565b606091505b508051612157576040517f08c379a000000000000000000000000000000000000000000000000000000000815260206004820152603260248201527f4552433732313a207472616e7366657220746f206e6f6e20455243373231526560448201527f63656976657220696d706c656d656e74657200000000000000000000000000006064820152608401610603565b805181602001fd5b7fffffffff00000000000000000000000000000000000000000000000000000000167f150b7a0200000000000000000000000000000000000000000000000000000000149050611613565b506001949350505050565b73ffffffffffffffffffffffffffffffffffffffff8216612232576040517f08c379a000000000000000000000000000000000000000000000000000000000815260206004820181905260248201527f4552433732313a206d696e7420746f20746865207a65726f20616464726573736044820152606401610603565b60008181526002602052604090205473ffffffffffffffffffffffffffffffffffffffff16156122be576040517f08c379a000000000000000000000000000000000000000000000000000000000815260206004820152601c60248201527f4552433732313a20746f6b656e20616c7265616479206d696e746564000000006044820152606401610603565b6122ca60008383611eb8565b73ffffffffffffffffffffffffffffffffffffffff82166000908152600360205260408120805460019290612300908490612896565b909155505060008181526002602052604080822080547fffffffffffffffffffffffff00000000000000000000000000000000000000001673ffffffffffffffffffffffffffffffffffffffff861690811790915590518392907fddf252ad1be2c89b69c2b068fc378daa952ba7f163c4a11628f55a4df523b3ef908290a45050565b82805461238f906127cd565b90600052602060002090601f0160209004810192826123b157600085556123f7565b82601f106123ca57805160ff19168380011785556123f7565b828001600101855582156123f7579182015b828111156123f75782518255916020019190600101906123dc565b50612403929150612407565b5090565b5b808211156124035760008155600101612408565b7fffffffff0000000000000000000000000000000000000000000000000000000081168114610b9357600080fd5b60006020828403121561245c57600080fd5b81356110ad8161241c565b7f4e487b7100000000000000000000000000000000000000000000000000000000600052604160045260246000fd5b600067ffffffffffffffff808411156124b1576124b1612467565b604051601f85017fffffffffffffffffffffffffffffffffffffffffffffffffffffffffffffffe0908116603f011681019082821181831017156124f7576124f7612467565b8160405280935085815286868601111561251057600080fd5b858560208301376000602087830101525050509392505050565b60006020828403121561253c57600080fd5b813567ffffffffffffffff81111561255357600080fd5b8201601f8101841361256457600080fd5b61161384823560208401612496565b60005b8381101561258e578181015183820152602001612576565b83811115610f9e5750506000910152565b600081518084526125b7816020860160208601612573565b601f017fffffffffffffffffffffffffffffffffffffffffffffffffffffffffffffffe0169290920160200192915050565b6020815260006110ad602083018461259f565b60006020828403121561260e57600080fd5b5035919050565b803573ffffffffffffffffffffffffffffffffffffffff8116811461263957600080fd5b919050565b6000806040838503121561265157600080fd5b61265a83612615565b946020939093013593505050565b60008060006060848603121561267d57600080fd5b61268684612615565b925061269460208501612615565b9150604084013590509250925092565b6000602082840312156126b657600080fd5b6110ad82612615565b600080604083850312156126d257600080fd5b6126db83612615565b9150602083013580151581146126f057600080fd5b809150509250929050565b6000806000806080858703121561271157600080fd5b61271a85612615565b935061272860208601612615565b925060408501359150606085013567ffffffffffffffff81111561274b57600080fd5b8501601f8101871361275c57600080fd5b61276b87823560208401612496565b91505092959194509250565b6000806040838503121561278a57600080fd5b61279383612615565b91506127a160208401612615565b90509250929050565b6000602082840312156127bc57600080fd5b813560ff811681146110ad57600080fd5b600181811c908216806127e157607f821691505b6020821081141561281b577f4e487b7100000000000000000000000000000000000000000000000000000000600052602260045260246000fd5b50919050565b7f4e487b7100000000000000000000000000000000000000000000000000000000600052601160045260246000fd5b60008282101561286257612862612821565b500390565b60008351612879818460208801612573565b83519083019061288d818360208801612573565b01949350505050565b600082198211156128a9576128a9612821565b500190565b60007fffffffffffffffffffffffffffffffffffffffffffffffffffffffffffffffff8214156128e0576128e0612821565b5060010190565b7f4e487b7100000000000000000000000000000000000000000000000000000000600052601260045260246000fd5b600082612925576129256128e7565b500490565b600082612939576129396128e7565b500690565b7f4e487b7100000000000000000000000000000000000000000000000000000000600052603260045260246000fd5b600073ffffffffffffffffffffffffffffffffffffffff8087168352808616602084015250836040830152608060608301526129ac608083018461259f565b9695505050505050565b6000602082840312156129c857600080fd5b81516110ad8161241c56fea2646970667358221220a31eb1b77860d7c9bc14ea79560841f559480c42db6a752f7cf21535d54e230964736f6c63430008090033",
  "linkReferences": {},
  "deployedLinkReferences": {}
}