{
  "abi": [
    {
      "inputs": [],
      "name": "InitializableContractAlreadyInitialized",
      "type": "error"
    },
    {
      "inputs": [],
      "name": "OperatorableCallerNotAdmin",
      "type": "error"
    },
    {
      "inputs": [],
      "name": "OperatorableCallerNotAdminOrRelay",
      "type": "error"
    },
    {
      "inputs": [],
      "name": "OperatorableCallerNotAdminOrSystem",
      "type": "error"
    },
    {
      "inputs": [],
      "name": "OperatorableCallerNotMultisig",
      "type": "error"
    },
    {
      "inputs": [],
      "name": "OperatorableCallerNotOperator",
      "type": "error"
    },
    {
      "inputs": [],
      "name": "OperatorableCallerNotOperatorOrAdminOrRelay",
      "type": "error"
    },
    {
      "inputs": [],
      "name": "OperatorableCallerNotOperatorOrRelay",
      "type": "error"
    },
    {
      "inputs": [],
      "name": "OperatorableCallerNotOperatorOrSystem",
      "type": "error"
    },
    {
      "inputs": [],
      "name": "OperatorableCallerNotOperatorOrSystemOrRelay",
      "type": "error"
    },
    {
      "inputs": [
        {
          "internalType": "address",
          "name": "_caller",
          "type": "address"
        }
      ],
      "name": "OperatorableCallerNotOperatorsContract",
      "type": "error"
    },
    {
      "inputs": [],
      "name": "OperatorableCallerNotRelay",
      "type": "error"
    },
    {
      "inputs": [],
      "name": "OperatorableCallerNotSystem",
      "type": "error"
    },
    {
      "inputs": [],
      "name": "OperatorableNewOperatorsZeroAddress",
      "type": "error"
    },
    {
      "inputs": [],
      "name": "PausableNotPaused",
      "type": "error"
    },
    {
      "inputs": [],
      "name": "PausablePaused",
      "type": "error"
    },
    {
      "inputs": [],
      "name": "TraderOperatorableCallerNotNewTraderOperator",
      "type": "error"
    },
    {
      "inputs": [],
      "name": "TraderOperatorableCallerNotTrader",
      "type": "error"
    },
    {
      "inputs": [],
      "name": "TraderOperatorableCallerNotTraderOrOperatorOrSystem",
      "type": "error"
    },
    {
      "inputs": [],
      "name": "TraderOperatorableNewTraderOperatorsAddressZero",
      "type": "error"
    },
    {
      "inputs": [],
      "name": "TraderOperatorablePendingTraderOperatorsAddressZero",
      "type": "error"
    },
    {
      "anonymous": false,
      "inputs": [
        {
          "indexed": true,
          "internalType": "address",
          "name": "owner",
          "type": "address"
        },
        {
          "indexed": true,
          "internalType": "address",
          "name": "operator",
          "type": "address"
        },
        {
          "indexed": false,
          "internalType": "bool",
          "name": "approved",
          "type": "bool"
        }
      ],
      "name": "ApprovalForAll",
      "type": "event"
    },
    {
      "anonymous": false,
      "inputs": [
        {
          "indexed": false,
          "internalType": "uint256",
          "name": "maxUniqueTokens",
          "type": "uint256"
        },
        {
          "indexed": false,
          "internalType": "string",
          "name": "baseUri",
          "type": "string"
        }
      ],
      "name": "Initialized",
      "type": "event"
    },
    {
      "anonymous": false,
      "inputs": [
        {
          "indexed": true,
          "internalType": "address",
          "name": "caller",
          "type": "address"
        },
        {
          "indexed": true,
          "internalType": "address",
          "name": "operatorsAddress",
          "type": "address"
        }
      ],
      "name": "OperatorsContractChanged",
      "type": "event"
    },
    {
      "anonymous": false,
      "inputs": [
        {
          "indexed": true,
          "internalType": "address",
          "name": "caller",
          "type": "address"
        },
        {
          "indexed": true,
          "internalType": "address",
          "name": "operatorsAddress",
          "type": "address"
        }
      ],
      "name": "OperatorsContractPending",
      "type": "event"
    },
    {
      "anonymous": false,
      "inputs": [
        {
          "indexed": true,
          "internalType": "address",
          "name": "account",
          "type": "address"
        }
      ],
      "name": "Paused",
      "type": "event"
    },
    {
      "anonymous": false,
      "inputs": [
        {
          "indexed": true,
          "internalType": "address",
          "name": "caller",
          "type": "address"
        },
        {
          "indexed": true,
          "internalType": "address",
          "name": "traderOperatorsAddress",
          "type": "address"
        }
      ],
      "name": "TraderOperatorsContractChanged",
      "type": "event"
    },
    {
      "anonymous": false,
      "inputs": [
        {
          "indexed": true,
          "internalType": "address",
          "name": "caller",
          "type": "address"
        },
        {
          "indexed": true,
          "internalType": "address",
          "name": "traderOperatorsAddress",
          "type": "address"
        }
      ],
      "name": "TraderOperatorsContractPending",
      "type": "event"
    },
    {
      "anonymous": false,
      "inputs": [
        {
          "indexed": true,
          "internalType": "address",
          "name": "operator",
          "type": "address"
        },
        {
          "indexed": true,
          "internalType": "address",
          "name": "from",
          "type": "address"
        },
        {
          "indexed": true,
          "internalType": "address",
          "name": "to",
          "type": "address"
        },
        {
          "indexed": false,
          "internalType": "uint256[]",
          "name": "ids",
          "type": "uint256[]"
        },
        {
          "indexed": false,
          "internalType": "uint256[]",
          "name": "amounts",
          "type": "uint256[]"
        }
      ],
      "name": "TransferBatch",
      "type": "event"
    },
    {
      "anonymous": false,
      "inputs": [
        {
          "indexed": true,
          "internalType": "address",
          "name": "operator",
          "type": "address"
        },
        {
          "indexed": true,
          "internalType": "address",
          "name": "from",
          "type": "address"
        },
        {
          "indexed": true,
          "internalType": "address",
          "name": "to",
          "type": "address"
        },
        {
          "indexed": false,
          "internalType": "uint256",
          "name": "id",
          "type": "uint256"
        },
        {
          "indexed": false,
          "internalType": "uint256",
          "name": "amount",
          "type": "uint256"
        }
      ],
      "name": "TransferSingle",
      "type": "event"
    },
    {
      "anonymous": false,
      "inputs": [
        {
          "indexed": false,
          "internalType": "string",
          "name": "value",
          "type": "string"
        },
        {
          "indexed": true,
          "internalType": "uint256",
          "name": "id",
          "type": "uint256"
        }
      ],
      "name": "URI",
      "type": "event"
    },
    {
      "anonymous": false,
      "inputs": [
        {
          "indexed": true,
          "internalType": "address",
          "name": "account",
          "type": "address"
        }
      ],
      "name": "Unpaused",
      "type": "event"
    },
    {
      "inputs": [
        {
          "internalType": "address",
          "name": "",
          "type": "address"
        },
        {
          "internalType": "uint256",
          "name": "",
          "type": "uint256"
        }
      ],
      "name": "balanceOf",
      "outputs": [
        {
          "internalType": "uint256",
          "name": "",
          "type": "uint256"
        }
      ],
      "stateMutability": "view",
      "type": "function"
    },
    {
      "inputs": [
        {
          "internalType": "address[]",
          "name": "owners",
          "type": "address[]"
        },
        {
          "internalType": "uint256[]",
          "name": "ids",
          "type": "uint256[]"
        }
      ],
      "name": "balanceOfBatch",
      "outputs": [
        {
          "internalType": "uint256[]",
          "name": "balances",
          "type": "uint256[]"
        }
      ],
      "stateMutability": "view",
      "type": "function"
    },
    {
      "inputs": [],
      "name": "baseUri",
      "outputs": [
        {
          "internalType": "string",
          "name": "",
          "type": "string"
        }
      ],
      "stateMutability": "view",
      "type": "function"
    },
    {
      "inputs": [
        {
          "internalType": "address",
          "name": "to",
          "type": "address"
        },
        {
          "internalType": "uint256[]",
          "name": "ids",
          "type": "uint256[]"
        },
        {
          "internalType": "uint256[]",
          "name": "amounts",
          "type": "uint256[]"
        },
        {
          "internalType": "bytes",
          "name": "data",
          "type": "bytes"
        }
      ],
      "name": "batchMint",
      "outputs": [],
      "stateMutability": "nonpayable",
      "type": "function"
    },
    {
      "inputs": [],
      "name": "confirmOperatorsContract",
      "outputs": [],
      "stateMutability": "nonpayable",
      "type": "function"
    },
    {
      "inputs": [],
      "name": "confirmTraderOperatorsContract",
      "outputs": [],
      "stateMutability": "nonpayable",
      "type": "function"
    },
    {
      "inputs": [],
      "name": "encodedMaxTokenSupplies",
      "outputs": [
        {
          "internalType": "bytes",
          "name": "",
          "type": "bytes"
        }
      ],
      "stateMutability": "view",
      "type": "function"
    },
    {
      "inputs": [],
      "name": "getOperatorsContract",
      "outputs": [
        {
          "internalType": "address",
          "name": "",
          "type": "address"
        }
      ],
      "stateMutability": "view",
      "type": "function"
    },
    {
      "inputs": [],
      "name": "getOperatorsPending",
      "outputs": [
        {
          "internalType": "address",
          "name": "",
          "type": "address"
        }
      ],
      "stateMutability": "view",
      "type": "function"
    },
    {
      "inputs": [],
      "name": "getTraderOperatorsContract",
      "outputs": [
        {
          "internalType": "address",
          "name": "",
          "type": "address"
        }
      ],
      "stateMutability": "view",
      "type": "function"
    },
    {
      "inputs": [],
      "name": "getTraderOperatorsPending",
      "outputs": [
        {
          "internalType": "address",
          "name": "",
          "type": "address"
        }
      ],
      "stateMutability": "view",
      "type": "function"
    },
    {
      "inputs": [
        {
          "internalType": "address",
          "name": "_baseOperators",
          "type": "address"
        },
        {
          "internalType": "address",
          "name": "_traderOperators",
          "type": "address"
        }
      ],
      "name": "initialize",
      "outputs": [],
      "stateMutability": "nonpayable",
      "type": "function"
    },
    {
      "inputs": [
        {
          "internalType": "bytes",
          "name": "_encodedMaxTokenSupplies",
          "type": "bytes"
        },
        {
          "internalType": "address",
          "name": "_royaltyRecipient",
          "type": "address"
        },
        {
          "internalType": "address",
          "name": "_baseOperators",
          "type": "address"
        },
        {
          "internalType": "string",
          "name": "_baseUri",
          "type": "string"
        },
        {
          "internalType": "uint256",
          "name": "_startDate",
          "type": "uint256"
        },
        {
          "internalType": "uint256",
          "name": "_mintDuration",
          "type": "uint256"
        }
      ],
      "name": "initialize",
      "outputs": [],
      "stateMutability": "nonpayable",
      "type": "function"
    },
    {
      "inputs": [
        {
          "internalType": "address",
          "name": "_baseOperators",
          "type": "address"
        }
      ],
      "name": "initialize",
      "outputs": [],
      "stateMutability": "nonpayable",
      "type": "function"
    },
    {
      "inputs": [
        {
          "internalType": "address",
          "name": "_account",
          "type": "address"
        }
      ],
      "name": "isAdmin",
      "outputs": [
        {
          "internalType": "bool",
          "name": "",
          "type": "bool"
        }
      ],
      "stateMutability": "view",
      "type": "function"
    },
    {
      "inputs": [
        {
          "internalType": "address",
          "name": "_account",
          "type": "address"
        }
      ],
      "name": "isAdminOrSystem",
      "outputs": [
        {
          "internalType": "bool",
          "name": "",
          "type": "bool"
        }
      ],
      "stateMutability": "view",
      "type": "function"
    },
    {
      "inputs": [
        {
          "internalType": "address",
          "name": "",
          "type": "address"
        },
        {
          "internalType": "address",
          "name": "",
          "type": "address"
        }
      ],
      "name": "isApprovedForAll",
      "outputs": [
        {
          "internalType": "bool",
          "name": "",
          "type": "bool"
        }
      ],
      "stateMutability": "view",
      "type": "function"
    },
    {
      "inputs": [],
      "name": "isInitialized",
      "outputs": [
        {
          "internalType": "bool",
          "name": "",
          "type": "bool"
        }
      ],
      "stateMutability": "view",
      "type": "function"
    },
    {
      "inputs": [
        {
          "internalType": "address",
          "name": "_contract",
          "type": "address"
        }
      ],
      "name": "isMultisig",
      "outputs": [
        {
          "internalType": "bool",
          "name": "",
          "type": "bool"
        }
      ],
      "stateMutability": "view",
      "type": "function"
    },
    {
      "inputs": [],
      "name": "isNotPaused",
      "outputs": [
        {
          "internalType": "bool",
          "name": "",
          "type": "bool"
        }
      ],
      "stateMutability": "view",
      "type": "function"
    },
    {
      "inputs": [
        {
          "internalType": "address",
          "name": "_account",
          "type": "address"
        }
      ],
      "name": "isOperator",
      "outputs": [
        {
          "internalType": "bool",
          "name": "",
          "type": "bool"
        }
      ],
      "stateMutability": "view",
      "type": "function"
    },
    {
      "inputs": [
        {
          "internalType": "address",
          "name": "_account",
          "type": "address"
        }
      ],
      "name": "isOperatorOrSystem",
      "outputs": [
        {
          "internalType": "bool",
          "name": "",
          "type": "bool"
        }
      ],
      "stateMutability": "view",
      "type": "function"
    },
    {
      "inputs": [],
      "name": "isPaused",
      "outputs": [
        {
          "internalType": "bool",
          "name": "",
          "type": "bool"
        }
      ],
      "stateMutability": "view",
      "type": "function"
    },
    {
      "inputs": [
        {
          "internalType": "address",
          "name": "_account",
          "type": "address"
        }
      ],
      "name": "isRelay",
      "outputs": [
        {
          "internalType": "bool",
          "name": "",
          "type": "bool"
        }
      ],
      "stateMutability": "view",
      "type": "function"
    },
    {
      "inputs": [
        {
          "internalType": "address",
          "name": "_account",
          "type": "address"
        }
      ],
      "name": "isSystem",
      "outputs": [
        {
          "internalType": "bool",
          "name": "",
          "type": "bool"
        }
      ],
      "stateMutability": "view",
      "type": "function"
    },
    {
      "inputs": [
        {
          "internalType": "address",
          "name": "_account",
          "type": "address"
        }
      ],
      "name": "isTrader",
      "outputs": [
        {
          "internalType": "bool",
          "name": "",
          "type": "bool"
        }
      ],
      "stateMutability": "view",
      "type": "function"
    },
    {
      "inputs": [
        {
          "internalType": "uint256",
          "name": "tokenId",
          "type": "uint256"
        }
      ],
      "name": "maxTokenSupply",
      "outputs": [
        {
          "internalType": "uint256",
          "name": "res",
          "type": "uint256"
        }
      ],
      "stateMutability": "view",
      "type": "function"
    },
    {
      "inputs": [],
      "name": "maxUniqueTokens",
      "outputs": [
        {
          "internalType": "uint256",
          "name": "",
          "type": "uint256"
        }
      ],
      "stateMutability": "view",
      "type": "function"
    },
    {
      "inputs": [
        {
          "internalType": "address",
          "name": "to",
          "type": "address"
        },
        {
          "internalType": "uint256",
          "name": "id",
          "type": "uint256"
        },
        {
          "internalType": "uint256",
          "name": "amount",
          "type": "uint256"
        },
        {
          "internalType": "bytes",
          "name": "data",
          "type": "bytes"
        }
      ],
      "name": "mint",
      "outputs": [],
      "stateMutability": "nonpayable",
      "type": "function"
    },
    {
      "inputs": [],
      "name": "mintDuration",
      "outputs": [
        {
          "internalType": "uint256",
          "name": "",
          "type": "uint256"
        }
      ],
      "stateMutability": "view",
      "type": "function"
    },
    {
      "inputs": [],
      "name": "pause",
      "outputs": [],
      "stateMutability": "nonpayable",
      "type": "function"
    },
    {
      "inputs": [],
      "name": "royaltyRecipient",
      "outputs": [
        {
          "internalType": "address",
          "name": "",
          "type": "address"
        }
      ],
      "stateMutability": "view",
      "type": "function"
    },
    {
      "inputs": [
        {
          "internalType": "address",
          "name": "from",
          "type": "address"
        },
        {
          "internalType": "address",
          "name": "to",
          "type": "address"
        },
        {
          "internalType": "uint256[]",
          "name": "ids",
          "type": "uint256[]"
        },
        {
          "internalType": "uint256[]",
          "name": "amounts",
          "type": "uint256[]"
        },
        {
          "internalType": "bytes",
          "name": "data",
          "type": "bytes"
        }
      ],
      "name": "safeBatchTransferFrom",
      "outputs": [],
      "stateMutability": "nonpayable",
      "type": "function"
    },
    {
      "inputs": [
        {
          "internalType": "address",
          "name": "from",
          "type": "address"
        },
        {
          "internalType": "address",
          "name": "to",
          "type": "address"
        },
        {
          "internalType": "uint256",
          "name": "id",
          "type": "uint256"
        },
        {
          "internalType": "uint256",
          "name": "amount",
          "type": "uint256"
        },
        {
          "internalType": "bytes",
          "name": "data",
          "type": "bytes"
        }
      ],
      "name": "safeTransferFrom",
      "outputs": [],
      "stateMutability": "nonpayable",
      "type": "function"
    },
    {
      "inputs": [
        {
          "internalType": "address",
          "name": "operator",
          "type": "address"
        },
        {
          "internalType": "bool",
          "name": "approved",
          "type": "bool"
        }
      ],
      "name": "setApprovalForAll",
      "outputs": [],
      "stateMutability": "nonpayable",
      "type": "function"
    },
    {
      "inputs": [
        {
          "internalType": "address",
          "name": "_baseOperators",
          "type": "address"
        }
      ],
      "name": "setOperatorsContract",
      "outputs": [],
      "stateMutability": "nonpayable",
      "type": "function"
    },
    {
      "inputs": [
        {
          "internalType": "address",
          "name": "_traderOperators",
          "type": "address"
        }
      ],
      "name": "setTraderOperatorsContract",
      "outputs": [],
      "stateMutability": "nonpayable",
      "type": "function"
    },
    {
      "inputs": [],
      "name": "startDate",
      "outputs": [
        {
          "internalType": "uint256",
          "name": "",
          "type": "uint256"
        }
      ],
      "stateMutability": "view",
      "type": "function"
    },
    {
      "inputs": [
        {
          "internalType": "bytes4",
          "name": "interfaceId",
          "type": "bytes4"
        }
      ],
      "name": "supportsInterface",
      "outputs": [
        {
          "internalType": "bool",
          "name": "",
          "type": "bool"
        }
      ],
      "stateMutability": "view",
      "type": "function"
    },
    {
      "inputs": [
        {
          "internalType": "uint256",
          "name": "",
          "type": "uint256"
        }
      ],
      "name": "tokenSupply",
      "outputs": [
        {
          "internalType": "uint256",
          "name": "",
          "type": "uint256"
        }
      ],
      "stateMutability": "view",
      "type": "function"
    },
    {
      "inputs": [],
      "name": "unpause",
      "outputs": [],
      "stateMutability": "nonpayable",
      "type": "function"
    },
    {
      "inputs": [
        {
          "internalType": "uint256",
          "name": "id",
          "type": "uint256"
        }
      ],
      "name": "uri",
      "outputs": [
        {
          "internalType": "string",
          "name": "",
          "type": "string"
        }
      ],
      "stateMutability": "view",
      "type": "function"
    }
  ],
  "bytecode": {
    "object": "0x608060405234801561001057600080fd5b506036805460ff60a01b19169055612a388061002d6000396000f3fe608060405234801561001057600080fd5b506004361061025d5760003560e01c80634e1273f411610146578063a22cb465116100c3578063b48ab8b611610087578063b48ab8b614610517578063b98aa3121461052a578063c4d66de81461053b578063d0ea5f4d1461054e578063e985e9c514610561578063f242432a1461058f57600080fd5b8063a22cb465146104ce578063a83ef515146104e1578063b187bd26146104ea578063b1dab915146104fc578063b316675e1461050f57600080fd5b80637acf48921161010a5780637acf4892146104905780638456cb59146104a35780638535a56b146104ab578063976ec191146104b35780639abc8320146104c657600080fd5b80634e1273f4146104265780635ead86c614610446578063668f6ace146104575780636d70f7ae1461046a578063731133e91461047d57600080fd5b806326cb32b7116101df57806336f5cba5116101a357806336f5cba5146103c7578063392e53cd146103da5780633f4ba83a146103e55780634039ad0d146103ed578063485cc955146104005780634c00de821461041357600080fd5b806326cb32b71461036a578063295185141461037d5780632e4ea245146103905780632eb2c2d6146103a157806334cdcf26146103b457600080fd5b80631745145e116102265780631745145e146102f45780631c6bbabc14610309578063215f11f81461032e57806324d7806c146103375780632693ebf21461034a57600080fd5b8062fdd58e1461026257806301934421146102a057806301ffc9a7146102b55780630b97bc86146102d85780630e89341c146102e1575b600080fd5b61028d610270366004611eb6565b603760209081526000928352604080842090915290825290205481565b6040519081526020015b60405180910390f35b6102a86105a2565b6040516102979190611f2d565b6102c86102c3366004611f60565b610630565b6040519015158152602001610297565b61028d603c5481565b6102a86102ef366004611f7d565b610682565b610307610302366004611f96565b6106af565b005b6034546001600160a01b03165b6040516001600160a01b039091168152602001610297565b61028d603e5481565b6102c8610345366004611f96565b610748565b61028d610358366004611f7d565b603a6020526000908152604090205481565b6102c8610378366004611f96565b6107c7565b6102c861038b366004611f96565b6107fa565b6036546001600160a01b0316610316565b6103076103af36600461203f565b6108b1565b6102c86103c2366004611f96565b6108f6565b61028d6103d5366004611f7d565b610929565b60005460ff166102c8565b6103076109c2565b6102c86103fb366004611f96565b610a71565b61030761040e3660046120fa565b610aa4565b603954610316906001600160a01b031681565b61043961043436600461212d565b610b33565b60405161029791906121d4565b6033546001600160a01b0316610316565b6102c8610465366004611f96565b610c47565b6102c8610478366004611f96565b610c7a565b61030761048b3660046122a6565b610cad565b603654600160a01b900460ff16156102c8565b610307610ce5565b610307610d9c565b6103076104c1366004612307565b610e09565b6102a8610f1a565b6103076104dc3660046123ca565b610f27565b61028d603d5481565b603654600160a01b900460ff166102c8565b61030761050a366004611f96565b610f93565b61030761102c565b610307610525366004612481565b611095565b6035546001600160a01b0316610316565b610307610549366004611f96565b6110c7565b6102c861055c366004611f96565b61114c565b6102c861056f3660046120fa565b603860209081526000928352604080842090915290825290205460ff1681565b61030761059d36600461250e565b61117f565b603f80546105af90612586565b80601f01602080910402602001604051908101604052809291908181526020018280546105db90612586565b80156106285780601f106105fd57610100808354040283529160200191610628565b820191906000526020600020905b81548152906001019060200180831161060b57829003601f168201915b505050505081565b60006301ffc9a760e01b6001600160e01b0319831614806106615750636cdb3d1360e11b6001600160e01b03198316145b8061067c57506303a24d0760e21b6001600160e01b03198316145b92915050565b60405160609061069990603b9084906020016125c1565b6040516020818303038152906040529050919050565b6106b833610748565b6106d55760405163590f633960e01b815260040160405180910390fd5b6001600160a01b0381166106fc57604051638d9b385f60e01b815260040160405180910390fd5b603480546001600160a01b0319166001600160a01b03831690811790915560405133907f01e6311290e7fb795a47761d6ca6a39b9c898bbf2e8b0e40211aa9f2f6c0202990600090a350565b603354604051630935e01b60e21b81526001600160a01b03838116600483015260009216906324d7806c906024015b60206040518083038186803b15801561078f57600080fd5b505afa1580156107a3573d6000803e3d6000fd5b505050506040513d601f19601f8201168201806040525081019061067c9190612646565b6033546040516326cb32b760e01b81526001600160a01b03838116600483015260009216906326cb32b790602401610777565b6033546040516336b87bd760e11b81526001600160a01b0383811660048301526000921690636d70f7ae906024015b60206040518083038186803b15801561084157600080fd5b505afa158015610855573d6000803e3d6000fd5b505050506040513d601f19601f820116820180604052508101906108799190612646565b8061067c5750603354604051631a66e79360e11b81526001600160a01b038481166004830152909116906334cdcf2690602401610777565b603654600160a01b900460ff16156108dc5760405163928dfa7760e01b815260040160405180910390fd5b6108ec88888888888888886111c0565b5050505050505050565b603354604051631a66e79360e11b81526001600160a01b03838116600483015260009216906334cdcf2690602401610777565b6000603e5482106109745760405162461bcd60e51b815260206004820152601060248201526f125b9d985b1a59081d1bdad95b88125160821b60448201526064015b60405180910390fd5b603f82815461098290612586565b811061099057610990612663565b8154600116156109af5790600052602060002090602091828204019190065b9054600160f81b911a0260f81c92915050565b6109cb33610c7a565b1580156109de57506109dc33610a71565b155b80156109f057506109ee336108f6565b155b15610a0e57604051635dc4e41160e11b815260040160405180910390fd5b603654600160a01b900460ff16610a375760405162c5619760e61b815260040160405180910390fd5b6036805460ff60a01b1916905560405133907f5db9ee0a495bf2e6ff9c91a7834c1ba4fdd244a5e8aa4e537bd38aeae4b073aa90600090a2565b603554604051634039ad0d60e01b81526001600160a01b0383811660048301526000921690634039ad0d90602401610777565b600054610100900460ff16158015610abc5750303b15155b8015610aca575060005460ff165b15610ae857604051635428559160e01b815260040160405180910390fd5b600054610100900460ff16158015610b0a576000805461ffff19166101011790555b610b13836110c7565b610b1c82611454565b8015610b2e576000805461ff00191690555b505050565b6060838214610b545760405162461bcd60e51b815260040161096b90612679565b8367ffffffffffffffff811115610b6d57610b6d6121e7565b604051908082528060200260200182016040528015610b96578160200160208202803683370190505b50905060005b84811015610c3e5760376000878784818110610bba57610bba612663565b9050602002016020810190610bcf9190611f96565b6001600160a01b03166001600160a01b031681526020019081526020016000206000858584818110610c0357610c03612663565b90506020020135815260200190815260200160002054828281518110610c2b57610c2b612663565b6020908102919091010152600101610b9c565b50949350505050565b603354604051633347b56760e11b81526001600160a01b038381166004830152600092169063668f6ace90602401610777565b6033546040516336b87bd760e11b81526001600160a01b0383811660048301526000921690636d70f7ae90602401610777565b610cb633610c7a565b610cd35760405163aa49d14f60e01b815260040160405180910390fd5b610cdf848484846114c7565b50505050565b610cee33610c7a565b158015610d015750610cff33610a71565b155b8015610d135750610d11336108f6565b155b15610d3157604051635dc4e41160e11b815260040160405180910390fd5b603654600160a01b900460ff1615610d5c5760405163928dfa7760e01b815260040160405180910390fd5b6036805460ff60a01b1916600160a01b17905560405133907f62e78cea01bee320cd4e420270b5ea74000d11b0c9f74754ebdbfc544b05a25890600090a2565b6034546001600160a01b0316610dc557604051638d9b385f60e01b815260040160405180910390fd5b6034546001600160a01b03163314610df2576040516385df92a760e01b815233600482015260240161096b565b603454610e07906001600160a01b0316611624565b565b600054610100900460ff16158015610e215750303b15155b8015610e2f575060005460ff165b15610e4d57604051635428559160e01b815260040160405180910390fd5b600054610100900460ff16158015610e6f576000805461ffff19166101011790555b610e7b603f8989611d8d565b50603e879055603980546001600160a01b0319166001600160a01b0388161790558351610eaf90603b906020870190611e11565b50603c839055603d829055610ec3856110c7565b7fa58e619868102cec9682744dbf06f0cc0b450e67fd4b6c795a6b1b3660e9cf07603e54603b604051610ef79291906126a2565b60405180910390a180156108ec576000805461ff00191690555050505050505050565b603b80546105af90612586565b3360008181526038602090815260408083206001600160a01b03871680855290835292819020805460ff191686151590811790915590519081529192917f17307eab39ab6107e8899845ad3d59bd9653f200f220920489ca2b5937696c31910160405180910390a35050565b610f9c33610748565b610fb95760405163590f633960e01b815260040160405180910390fd5b6001600160a01b038116610fe05760405163919ee6f760e01b815260040160405180910390fd5b603680546001600160a01b0319166001600160a01b03831690811790915560405133907f3f3352e835b79539c317572a5adbfcc149494437e8975906a5a2274c3d06b52790600090a350565b6036546001600160a01b031661105557604051630105355160e01b815260040160405180910390fd5b6036546001600160a01b0316331461108057604051632eebd0d360e11b815260040160405180910390fd5b603654610e07906001600160a01b0316611454565b61109e33610c7a565b6110bb5760405163aa49d14f60e01b815260040160405180910390fd5b610cdf84848484611697565b600054610100900460ff161580156110df5750303b15155b80156110ed575060005460ff165b1561110b57604051635428559160e01b815260040160405180910390fd5b600054610100900460ff1615801561112d576000805461ffff19166101011790555b61113682611624565b8015611148576000805461ff00191690555b5050565b603354604051630935e01b60e21b81526001600160a01b03838116600483015260009216906324d7806c90602401610829565b603654600160a01b900460ff16156111aa5760405163928dfa7760e01b815260040160405180910390fd5b6111b8868686868686611851565b505050505050565b8483146111df5760405162461bcd60e51b815260040161096b90612679565b336001600160a01b038916148061121957506001600160a01b038816600090815260386020908152604080832033845290915290205460ff165b6112565760405162461bcd60e51b815260206004820152600e60248201526d1393d517d055551213d49256915160921b604482015260640161096b565b60008060005b878110156113155788888281811061127657611276612663565b90506020020135925086868281811061129157611291612663565b6001600160a01b038e166000908152603760209081526040808320898452825282208054939091029490940135955085939250906112d0908490612745565b90915550506001600160a01b038a1660009081526037602090815260408083208684529091528120805484929061130890849061275c565b909155505060010161125c565b50886001600160a01b03168a6001600160a01b0316336001600160a01b03167f4a39dc06d4c0dbc64b70af90fd698a233a518aa5d07e595d983b8c0526c8f7fb8b8b8b8b60405161136994939291906127aa565b60405180910390a46001600160a01b0389163b1561141f5760405163bc197c8160e01b808252906001600160a01b038b169063bc197c81906113bd9033908f908e908e908e908e908e908e906004016127fa565b602060405180830381600087803b1580156113d757600080fd5b505af11580156113eb573d6000803e3d6000fd5b505050506040513d601f19601f8201168201806040525081019061140f919061285e565b6001600160e01b0319161461142c565b6001600160a01b03891615155b6114485760405162461bcd60e51b815260040161096b9061287b565b50505050505050505050565b6001600160a01b03811661147b5760405163919ee6f760e01b815260040160405180910390fd5b603580546001600160a01b0319166001600160a01b03831690811790915560405133907f2062717208704e88e492fbeeade423dbb92afbc0429f402e121c31050b16ef2290600090a350565b603c541561157557603c5442101561151b5760405162461bcd60e51b8152602060048201526017602482015276135a5b9d1a5b99c81a185cc81b9bdd081cdd185c9d1959604a1b604482015260640161096b565b603d541561157557603d54603c54611533919061275c565b42106115755760405162461bcd60e51b8152602060048201526011602482015270135a5b9d1a5b99c81a185cc8195b991959607a1b604482015260640161096b565b61157e83610929565b6000848152603a602052604090205461159890849061275c565b11156115b65760405162461bcd60e51b815260040161096b906128a5565b603e5483106115f45760405162461bcd60e51b815260206004820152600a602482015269125b9d985b1a5908125160b21b604482015260640161096b565b6000838152603a60205260408120805484929061161290849061275c565b90915550610cdf905084848484611a56565b6001600160a01b03811661164b57604051638d9b385f60e01b815260040160405180910390fd5b603380546001600160a01b0319166001600160a01b03831690811790915560405133907f581e9e5016a25985d2da9da423c68d9946de634ff0e3447eaaa9575d135e819e90600090a350565b603c541561174557603c544210156116eb5760405162461bcd60e51b8152602060048201526017602482015276135a5b9d1a5b99c81a185cc81b9bdd081cdd185c9d1959604a1b604482015260640161096b565b603d541561174557603d54603c54611703919061275c565b42106117455760405162461bcd60e51b8152602060048201526011602482015270135a5b9d1a5b99c81a185cc8195b991959607a1b604482015260640161096b565b60005b835181101561184457600084828151811061176557611765612663565b60200260200101519050600084838151811061178357611783612663565b6020026020010151905061179682610929565b6000838152603a60205260409020546117b090839061275c565b11156117ce5760405162461bcd60e51b815260040161096b906128a5565b603e54821061180c5760405162461bcd60e51b815260206004820152600a602482015269125b9d985b1a5908125160b21b604482015260640161096b565b6000828152603a60205260408120805483929061182a90849061275c565b9250508190555050508061183d906128e6565b9050611748565b50610cdf84848484611ba9565b336001600160a01b038716148061188b57506001600160a01b038616600090815260386020908152604080832033845290915290205460ff165b6118c85760405162461bcd60e51b815260206004820152600e60248201526d1393d517d055551213d49256915160921b604482015260640161096b565b6001600160a01b0386166000908152603760209081526040808320878452909152812080548592906118fb908490612745565b90915550506001600160a01b03851660009081526037602090815260408083208784529091528120805485929061193390849061275c565b909155505060408051858152602081018590526001600160a01b03808816929089169133917fc3d58168c5ae7397731d063d5bbf3d657854427343f4c083240f7aacaa2d0f62910160405180910390a46001600160a01b0385163b15611a2d5760405163f23a6e6160e01b808252906001600160a01b0387169063f23a6e61906119cb9033908b908a908a908a908a90600401612901565b602060405180830381600087803b1580156119e557600080fd5b505af11580156119f9573d6000803e3d6000fd5b505050506040513d601f19601f82011682018060405250810190611a1d919061285e565b6001600160e01b03191614611a3a565b6001600160a01b03851615155b6111b85760405162461bcd60e51b815260040161096b9061287b565b6001600160a01b038416600090815260376020908152604080832086845290915281208054849290611a8990849061275c565b909155505060408051848152602081018490526001600160a01b0386169160009133917fc3d58168c5ae7397731d063d5bbf3d657854427343f4c083240f7aacaa2d0f62910160405180910390a46001600160a01b0384163b15611b805760405163f23a6e6160e01b808252906001600160a01b0386169063f23a6e6190611b1e903390600090899089908990600401612948565b602060405180830381600087803b158015611b3857600080fd5b505af1158015611b4c573d6000803e3d6000fd5b505050506040513d601f19601f82011682018060405250810190611b70919061285e565b6001600160e01b03191614611b8d565b6001600160a01b03841615155b610cdf5760405162461bcd60e51b815260040161096b9061287b565b825182518114611bcb5760405162461bcd60e51b815260040161096b90612679565b60005b81811015611c5b57838181518110611be857611be8612663565b602002602001015160376000886001600160a01b03166001600160a01b031681526020019081526020016000206000878481518110611c2957611c29612663565b602002602001015181526020019081526020016000206000828254611c4e919061275c565b9091555050600101611bce565b50846001600160a01b031660006001600160a01b0316336001600160a01b03167f4a39dc06d4c0dbc64b70af90fd698a233a518aa5d07e595d983b8c0526c8f7fb8787604051611cac929190612982565b60405180910390a46001600160a01b0385163b15611d5d5760405163bc197c8160e01b808252906001600160a01b0387169063bc197c8190611cfb9033906000908a908a908a906004016129b0565b602060405180830381600087803b158015611d1557600080fd5b505af1158015611d29573d6000803e3d6000fd5b505050506040513d601f19601f82011682018060405250810190611d4d919061285e565b6001600160e01b03191614611d6a565b6001600160a01b03851615155b611d865760405162461bcd60e51b815260040161096b9061287b565b5050505050565b828054611d9990612586565b90600052602060002090601f016020900481019282611dbb5760008555611e01565b82601f10611dd45782800160ff19823516178555611e01565b82800160010185558215611e01579182015b82811115611e01578235825591602001919060010190611de6565b50611e0d929150611e85565b5090565b828054611e1d90612586565b90600052602060002090601f016020900481019282611e3f5760008555611e01565b82601f10611e5857805160ff1916838001178555611e01565b82800160010185558215611e01579182015b82811115611e01578251825591602001919060010190611e6a565b5b80821115611e0d5760008155600101611e86565b80356001600160a01b0381168114611eb157600080fd5b919050565b60008060408385031215611ec957600080fd5b611ed283611e9a565b946020939093013593505050565b6000815180845260005b81811015611f0657602081850181015186830182015201611eea565b81811115611f18576000602083870101525b50601f01601f19169290920160200192915050565b602081526000611f406020830184611ee0565b9392505050565b6001600160e01b031981168114611f5d57600080fd5b50565b600060208284031215611f7257600080fd5b8135611f4081611f47565b600060208284031215611f8f57600080fd5b5035919050565b600060208284031215611fa857600080fd5b611f4082611e9a565b60008083601f840112611fc357600080fd5b50813567ffffffffffffffff811115611fdb57600080fd5b6020830191508360208260051b8501011115611ff657600080fd5b9250929050565b60008083601f84011261200f57600080fd5b50813567ffffffffffffffff81111561202757600080fd5b602083019150836020828501011115611ff657600080fd5b60008060008060008060008060a0898b03121561205b57600080fd5b61206489611e9a565b975061207260208a01611e9a565b9650604089013567ffffffffffffffff8082111561208f57600080fd5b61209b8c838d01611fb1565b909850965060608b01359150808211156120b457600080fd5b6120c08c838d01611fb1565b909650945060808b01359150808211156120d957600080fd5b506120e68b828c01611ffd565b999c989b5096995094979396929594505050565b6000806040838503121561210d57600080fd5b61211683611e9a565b915061212460208401611e9a565b90509250929050565b6000806000806040858703121561214357600080fd5b843567ffffffffffffffff8082111561215b57600080fd5b61216788838901611fb1565b9096509450602087013591508082111561218057600080fd5b5061218d87828801611fb1565b95989497509550505050565b600081518084526020808501945080840160005b838110156121c9578151875295820195908201906001016121ad565b509495945050505050565b602081526000611f406020830184612199565b634e487b7160e01b600052604160045260246000fd5b604051601f8201601f1916810167ffffffffffffffff81118282101715612226576122266121e7565b604052919050565b600067ffffffffffffffff831115612248576122486121e7565b61225b601f8401601f19166020016121fd565b905082815283838301111561226f57600080fd5b828260208301376000602084830101529392505050565b600082601f83011261229757600080fd5b611f408383356020850161222e565b600080600080608085870312156122bc57600080fd5b6122c585611e9a565b93506020850135925060408501359150606085013567ffffffffffffffff8111156122ef57600080fd5b6122fb87828801612286565b91505092959194509250565b600080600080600080600060c0888a03121561232257600080fd5b873567ffffffffffffffff8082111561233a57600080fd5b6123468b838c01611ffd565b909950975087915061235a60208b01611e9a565b965061236860408b01611e9a565b955060608a013591508082111561237e57600080fd5b508801601f81018a1361239057600080fd5b61239f8a82356020840161222e565b9350506080880135915060a0880135905092959891949750929550565b8015158114611f5d57600080fd5b600080604083850312156123dd57600080fd5b6123e683611e9a565b915060208301356123f6816123bc565b809150509250929050565b600082601f83011261241257600080fd5b8135602067ffffffffffffffff82111561242e5761242e6121e7565b8160051b61243d8282016121fd565b928352848101820192828101908785111561245757600080fd5b83870192505b848310156124765782358252918301919083019061245d565b979650505050505050565b6000806000806080858703121561249757600080fd5b6124a085611e9a565b9350602085013567ffffffffffffffff808211156124bd57600080fd5b6124c988838901612401565b945060408701359150808211156124df57600080fd5b6124eb88838901612401565b9350606087013591508082111561250157600080fd5b506122fb87828801612286565b60008060008060008060a0878903121561252757600080fd5b61253087611e9a565b955061253e60208801611e9a565b94506040870135935060608701359250608087013567ffffffffffffffff81111561256857600080fd5b61257489828a01611ffd565b979a9699509497509295939492505050565b600181811c9082168061259a57607f821691505b602082108114156125bb57634e487b7160e01b600052602260045260246000fd5b50919050565b60008084546125cf81612586565b600182811680156125e757600181146125f857612627565b60ff19841687528287019450612627565b8860005260208060002060005b8581101561261e5781548a820152908401908201612605565b50505082870194505b50505093815264173539b7b760d91b6020820152602501949350505050565b60006020828403121561265857600080fd5b8151611f40816123bc565b634e487b7160e01b600052603260045260246000fd5b6020808252600f908201526e0988a9c8ea890be9a92a69a82a8869608b1b604082015260600190565b82815260006020604081840152600084546126bc81612586565b80604087015260606001808416600081146126de57600181146126f257612720565b60ff19851689840152608089019550612720565b896000528660002060005b858110156127185781548b82018601529083019088016126fd565b8a0184019650505b50939998505050505050505050565b634e487b7160e01b600052601160045260246000fd5b6000828210156127575761275761272f565b500390565b6000821982111561276f5761276f61272f565b500190565b81835260006001600160fb1b0383111561278d57600080fd5b8260051b8083602087013760009401602001938452509192915050565b6040815260006127be604083018688612774565b8281036020840152612476818587612774565b81835281816020850137506000828201602090810191909152601f909101601f19169091010190565b6001600160a01b0389811682528816602082015260a060408201819052600090612827908301888a612774565b828103606084015261283a818789612774565b9050828103608084015261284f8185876127d1565b9b9a5050505050505050505050565b60006020828403121561287057600080fd5b8151611f4081611f47565b60208082526010908201526f155394d0519157d49150d2541251539560821b604082015260600190565b60208082526021908201527f416d6f756e74206f6620746f6b656e7320746f206d696e7420746f6f206869676040820152600d60fb1b606082015260800190565b60006000198214156128fa576128fa61272f565b5060010190565b6001600160a01b03878116825286166020820152604081018590526060810184905260a06080820181905260009061293c90830184866127d1565b98975050505050505050565b6001600160a01b03868116825285166020820152604081018490526060810183905260a06080820181905260009061247690830184611ee0565b6040815260006129956040830185612199565b82810360208401526129a78185612199565b95945050505050565b6001600160a01b0386811682528516602082015260a0604082018190526000906129dc90830186612199565b82810360608401526129ee8186612199565b9050828103608084015261293c8185611ee056fea2646970667358221220c3449ff1dacdec0ca1402af6fdf60fda2875533958d2df8b0368c06f567e797864736f6c63430008080033",
    "linkReferences": {}
  },
  "methodIdentifiers": {
    "balanceOf(address,uint256)": "00fdd58e",
    "balanceOfBatch(address[],uint256[])": "4e1273f4",
    "baseUri()": "9abc8320",
    "batchMint(address,uint256[],uint256[],bytes)": "b48ab8b6",
    "confirmOperatorsContract()": "8535a56b",
    "confirmTraderOperatorsContract()": "b316675e",
    "encodedMaxTokenSupplies()": "01934421",
    "getOperatorsContract()": "5ead86c6",
    "getOperatorsPending()": "1c6bbabc",
    "getTraderOperatorsContract()": "b98aa312",
    "getTraderOperatorsPending()": "2e4ea245",
    "initialize(address)": "c4d66de8",
    "initialize(address,address)": "485cc955",
    "initialize(bytes,address,address,string,uint256,uint256)": "976ec191",
    "isAdmin(address)": "24d7806c",
    "isAdminOrSystem(address)": "d0ea5f4d",
    "isApprovedForAll(address,address)": "e985e9c5",
    "isInitialized()": "392e53cd",
    "isMultisig(address)": "668f6ace",
    "isNotPaused()": "7acf4892",
    "isOperator(address)": "6d70f7ae",
    "isOperatorOrSystem(address)": "29518514",
    "isPaused()": "b187bd26",
    "isRelay(address)": "26cb32b7",
    "isSystem(address)": "34cdcf26",
    "isTrader(address)": "4039ad0d",
    "maxTokenSupply(uint256)": "36f5cba5",
    "maxUniqueTokens()": "215f11f8",
    "mint(address,uint256,uint256,bytes)": "731133e9",
    "mintDuration()": "a83ef515",
    "pause()": "8456cb59",
    "royaltyRecipient()": "4c00de82",
    "safeBatchTransferFrom(address,address,uint256[],uint256[],bytes)": "2eb2c2d6",
    "safeTransferFrom(address,address,uint256,uint256,bytes)": "f242432a",
    "setApprovalForAll(address,bool)": "a22cb465",
    "setOperatorsContract(address)": "1745145e",
    "setTraderOperatorsContract(address)": "b1dab915",
    "startDate()": "0b97bc86",
    "supportsInterface(bytes4)": "01ffc9a7",
    "tokenSupply(uint256)": "2693ebf2",
    "unpause()": "3f4ba83a",
    "uri(uint256)": "0e89341c"
  },
  "id": 1
}